{
  "contractName": "Add",
  "abi": [
    {
      "inputs": [],
      "payable": true,
      "stateMutability": "payable",
      "type": "constructor"
    },
    {
      "constant": true,
      "inputs": [
        {
          "internalType": "uint256",
          "name": "x",
          "type": "uint256"
        },
        {
          "internalType": "uint256",
          "name": "y",
          "type": "uint256"
        }
      ],
      "name": "add",
      "outputs": [
        {
          "internalType": "uint256",
          "name": "",
          "type": "uint256"
        }
      ],
      "payable": false,
      "stateMutability": "pure",
      "type": "function"
    },
    {
      "constant": true,
      "inputs": [
        {
          "internalType": "uint256",
          "name": "x",
          "type": "uint256"
        },
        {
          "internalType": "uint256",
          "name": "y",
          "type": "uint256"
        }
      ],
      "name": "mult",
      "outputs": [
        {
          "internalType": "uint256",
          "name": "",
          "type": "uint256"
        }
      ],
      "payable": false,
      "stateMutability": "pure",
      "type": "function"
    },
    {
      "constant": true,
      "inputs": [
        {
          "internalType": "uint256",
          "name": "x",
          "type": "uint256"
        },
        {
          "internalType": "uint256",
          "name": "y",
          "type": "uint256"
        }
      ],
      "name": "pythag",
      "outputs": [
        {
          "internalType": "uint256",
          "name": "",
          "type": "uint256"
        }
      ],
      "payable": false,
      "stateMutability": "pure",
      "type": "function"
    },
    {
      "constant": true,
      "inputs": [],
      "name": "getSeqNum",
      "outputs": [
        {
          "internalType": "uint256",
          "name": "",
          "type": "uint256"
        }
      ],
      "payable": false,
      "stateMutability": "view",
      "type": "function"
    },
    {
      "constant": false,
      "inputs": [],
      "name": "withdrawMyEth",
      "outputs": [],
      "payable": true,
      "stateMutability": "payable",
      "type": "function"
    },
    {
      "constant": false,
      "inputs": [],
      "name": "withdraw5000",
      "outputs": [],
      "payable": false,
      "stateMutability": "nonpayable",
      "type": "function"
    }
  ],
  "bytecode": "0x6080604052610427806100136000396000f3fe6080604052600436106100555760003560e01c806325b21b2e1461005a57806349c1cc7b146100715780636d15c4571461007b578063771602f7146100a65780639aa727f6146100ff578063e4156bc514610158575b600080fd5b34801561006657600080fd5b5061006f6101b1565b005b610079610250565b005b34801561008757600080fd5b506100906102ed565b6040518082815260200191505060405180910390f35b3480156100b257600080fd5b506100e9600480360360408110156100c957600080fd5b8101908080359060200190929190803590602001909291905050506103b2565b6040518082815260200191505060405180910390f35b34801561010b57600080fd5b506101426004803603604081101561012257600080fd5b8101908080359060200190929190803590602001909291905050506103bf565b6040518082815260200191505060405180910390f35b34801561016457600080fd5b5061019b6004803603604081101561017b57600080fd5b8101908080359060200190929190803590602001909291905050506103cc565b6040518082815260200191505060405180910390f35b606473ffffffffffffffffffffffffffffffffffffffff166325e160636113886104016040518363ffffffff1660e01b8152600401808273ffffffffffffffffffffffffffffffffffffffff1673ffffffffffffffffffffffffffffffffffffffff1681526020019150506000604051808303818588803b15801561023557600080fd5b505af1158015610249573d6000803e3d6000fd5b5050505050565b606473ffffffffffffffffffffffffffffffffffffffff166325e16063346104016040518363ffffffff1660e01b8152600401808273ffffffffffffffffffffffffffffffffffffffff1673ffffffffffffffffffffffffffffffffffffffff1681526020019150506000604051808303818588803b1580156102d257600080fd5b505af11580156102e6573d6000803e3d6000fd5b5050505050565b600080606473ffffffffffffffffffffffffffffffffffffffff166323ca0cd2336040518263ffffffff1660e01b8152600401808273ffffffffffffffffffffffffffffffffffffffff1673ffffffffffffffffffffffffffffffffffffffff16815260200191505060206040518083038186803b15801561036e57600080fd5b505afa158015610382573d6000803e3d6000fd5b505050506040513d602081101561039857600080fd5b810190808051906020019092919050505090508091505090565b6000818301905092915050565b6000818302905092915050565b60006103ea6103db84856103bf565b6103e584856103bf565b6103b2565b90509291505056fea265627a7a723158204db4af653ac4576be2f26e15fc0508114fb73693d9531d30795c579ef030c1f964736f6c63430005100032",
  "source": "pragma solidity >=0.4.21 <0.7.0;\n\nimport \"../../arbos/contracts/ArbSys.sol\";\n\n\ncontract Add {\n    constructor() public payable {}\n    \n    function add(uint x, uint y) public pure returns (uint) {\n        return x+y;\n    }\n\n    function mult(uint x, uint y) public pure returns (uint) {\n        return x*y;\n    }\n\n    function pythag(uint x, uint y) public pure returns (uint) {\n        return add(mult(x,x), mult(y,y));\n    }\n\n    function getSeqNum() public view returns (uint) {\n        uint256 txCount = ArbSys(address(100)).getTransactionCount(msg.sender);\n        return txCount;\n    }\n\n    function withdrawMyEth() public payable {\n\tArbSys(address(100)).withdrawEth.value(msg.value)(address(1025));\n    }\n\n    function withdraw5000() public {\n\tArbSys(address(100)).withdrawEth.value(5000)(address(1025));\n    }\n}\n",
  "sourcePath": "/Users/ed/OffchainLabs/arb-os/contracts/test/contracts/Add.sol",
  "compiler": {
    "name": "solc",
    "version": "0.5.16+commit.9c3226ce.Emscripten.clang"
  },
  "schemaVersion": "3.3.1",
  "updatedAt": "2020-12-30T16:13:18.587Z",
  "devdoc": {
    "methods": {}
  },
  "userdoc": {
    "methods": {}
  }
}