{
  "contractName": "Fibonacci",
  "abi": [
    {
      "anonymous": false,
      "inputs": [
        {
          "indexed": false,
          "internalType": "uint256",
          "name": "number",
          "type": "uint256"
        }
      ],
      "name": "TestEvent",
      "type": "event"
    },
    {
      "constant": false,
      "inputs": [
        {
          "internalType": "uint256",
          "name": "n",
          "type": "uint256"
        }
      ],
      "name": "generateFib",
      "outputs": [],
      "payable": true,
      "stateMutability": "payable",
      "type": "function"
    },
    {
      "constant": false,
      "inputs": [
        {
          "internalType": "uint256",
          "name": "n",
          "type": "uint256"
        }
      ],
      "name": "doFib",
      "outputs": [
        {
          "internalType": "uint256",
          "name": "",
          "type": "uint256"
        }
      ],
      "payable": false,
      "stateMutability": "nonpayable",
      "type": "function"
    },
    {
      "constant": true,
      "inputs": [
        {
          "internalType": "uint256",
          "name": "n",
          "type": "uint256"
        }
      ],
      "name": "getFib",
      "outputs": [
        {
          "internalType": "uint256",
          "name": "",
          "type": "uint256"
        }
      ],
      "payable": false,
      "stateMutability": "view",
      "type": "function"
    }
  ],
  "bytecode": "0x608060405234801561001057600080fd5b5061028a806100206000396000f3fe6080604052600436106100345760003560e01c80632ddec39b1461003957806390a3e3de14610067578063c1cbf7cf146100b6575b600080fd5b6100656004803603602081101561004f57600080fd5b8101908080359060200190929190505050610105565b005b34801561007357600080fd5b506100a06004803603602081101561008a57600080fd5b8101908080359060200190929190505050610217565b6040518082815260200191505060405180910390f35b3480156100c257600080fd5b506100ef600480360360208110156100d957600080fd5b8101908080359060200190929190505050610237565b6040518082815260200191505060405180910390f35b6000600190806001815401808255809150509060018203906000526020600020016000909192909190915055506000600190806001815401808255809150509060018203906000526020600020016000909192909190915055506000600290505b818110156101dc57600080600283038154811061017f57fe5b90600052602060002001546000600184038154811061019a57fe5b90600052602060002001540190806001815401808255809150509060018203906000526020600020016000909192909190915055508080600101915050610166565b507f1440c4dd67b4344ea1905ec0318995133b550f168b4ee959a0da6b503d7d2414816040518082815260200191505060405180910390a150565b600080828154811061022557fe5b90600052602060002001549050919050565b600061024560018301610105565b61024e82610217565b905091905056fea265627a7a72315820c44274077f5c1d62da5c4310ae026412f8002e5f842063aee8e16e086677099b64736f6c63430005100032",
  "source": "pragma solidity >=0.4.21 <0.6.0;\n\ncontract Fibonacci {\n\nuint[] fibseries;\n\n  event TestEvent(uint number);\n\n  // n = how many in the series to return\n  function generateFib(uint n) public payable {\n\n    // set 1st and 2nd entries\n    fibseries.push(1);\n    fibseries.push(1);\n\n    // generate subsequent entries\n    for (uint i=2; i < n ; i++) {\n      fibseries.push(fibseries[i-1] + fibseries[i-2]);\n    }\n\n    emit TestEvent(n);\n\n  }\n\n  function doFib(uint n) public returns (uint) {\n    generateFib(n+1);\n    return getFib(n);\n  }\n\n  function getFib(uint n) public view returns (uint) {\n    return fibseries[n];\n  }\n\n  // function getFib(uint n) public view returns (uint, uint) {\n  //   return (fibseries[n], fibseries[n + 1]);\n  // }\n\n}",
  "sourcePath": "/Users/ed/OffchainLabs/arb-os/contracts/test/contracts/Fibonacci.sol",
  "compiler": {
    "name": "solc",
    "version": "0.5.16+commit.9c3226ce.Emscripten.clang"
  },
  "schemaVersion": "3.3.1",
  "updatedAt": "2020-12-30T16:13:18.589Z",
  "devdoc": {
    "methods": {}
  },
  "userdoc": {
    "methods": {}
  }
}