{
  "contractName": "PaymentChannel",
  "abi": [
    {
      "inputs": [
        {
          "internalType": "address",
          "name": "fibAddress",
          "type": "address"
        }
      ],
      "payable": false,
      "stateMutability": "nonpayable",
      "type": "constructor"
    },
    {
      "anonymous": false,
      "inputs": [
        {
          "indexed": true,
          "internalType": "address",
          "name": "payee",
          "type": "address"
        },
        {
          "indexed": false,
          "internalType": "uint256",
          "name": "weiAmount",
          "type": "uint256"
        }
      ],
      "name": "Deposited",
      "type": "event"
    },
    {
      "anonymous": false,
      "inputs": [
        {
          "indexed": true,
          "internalType": "address",
          "name": "from",
          "type": "address"
        },
        {
          "indexed": true,
          "internalType": "address",
          "name": "to",
          "type": "address"
        },
        {
          "indexed": false,
          "internalType": "uint256",
          "name": "value",
          "type": "uint256"
        }
      ],
      "name": "Transfer",
      "type": "event"
    },
    {
      "anonymous": false,
      "inputs": [
        {
          "indexed": true,
          "internalType": "address",
          "name": "payee",
          "type": "address"
        },
        {
          "indexed": false,
          "internalType": "uint256",
          "name": "weiAmount",
          "type": "uint256"
        }
      ],
      "name": "Withdrawn",
      "type": "event"
    },
    {
      "constant": false,
      "inputs": [],
      "name": "deposit",
      "outputs": [],
      "payable": true,
      "stateMutability": "payable",
      "type": "function"
    },
    {
      "constant": true,
      "inputs": [
        {
          "internalType": "address",
          "name": "addr",
          "type": "address"
        }
      ],
      "name": "getBalance",
      "outputs": [
        {
          "internalType": "uint256",
          "name": "",
          "type": "uint256"
        }
      ],
      "payable": false,
      "stateMutability": "view",
      "type": "function"
    },
    {
      "constant": false,
      "inputs": [
        {
          "internalType": "uint256",
          "name": "amount",
          "type": "uint256"
        }
      ],
      "name": "withdraw",
      "outputs": [],
      "payable": false,
      "stateMutability": "nonpayable",
      "type": "function"
    },
    {
      "constant": false,
      "inputs": [
        {
          "internalType": "address",
          "name": "dest",
          "type": "address"
        },
        {
          "internalType": "uint256",
          "name": "amount",
          "type": "uint256"
        }
      ],
      "name": "transfer",
      "outputs": [],
      "payable": false,
      "stateMutability": "nonpayable",
      "type": "function"
    },
    {
      "constant": false,
      "inputs": [
        {
          "internalType": "address",
          "name": "dest",
          "type": "address"
        },
        {
          "internalType": "uint256",
          "name": "count",
          "type": "uint256"
        }
      ],
      "name": "transferFib",
      "outputs": [],
      "payable": false,
      "stateMutability": "nonpayable",
      "type": "function"
    },
    {
      "constant": false,
      "inputs": [],
      "name": "testCreate",
      "outputs": [
        {
          "internalType": "uint256",
          "name": "",
          "type": "uint256"
        }
      ],
      "payable": false,
      "stateMutability": "nonpayable",
      "type": "function"
    }
  ],
  "bytecode": "0x608060405234801561001057600080fd5b50604051610cc2380380610cc28339818101604052602081101561003357600080fd5b810190808051906020019092919050505080600160006101000a81548173ffffffffffffffffffffffffffffffffffffffff021916908373ffffffffffffffffffffffffffffffffffffffff16021790555050610c2d806100956000396000f3fe6080604052600436106100555760003560e01c80632e1a7d4d1461005a5780639450cf9614610095578063a9059cbb146100f0578063d0e30db01461014b578063d62d311514610155578063f8b2cb4f14610180575b600080fd5b34801561006657600080fd5b506100936004803603602081101561007d57600080fd5b81019080803590602001909291905050506101e5565b005b3480156100a157600080fd5b506100ee600480360360408110156100b857600080fd5b81019080803573ffffffffffffffffffffffffffffffffffffffff16906020019092919080359060200190929190505050610314565b005b3480156100fc57600080fd5b506101496004803603604081101561011357600080fd5b81019080803573ffffffffffffffffffffffffffffffffffffffff169060200190929190803590602001909291905050506105e4565b005b610153610730565b005b34801561016157600080fd5b5061016a6107cc565b6040518082815260200191505060405180910390f35b34801561018c57600080fd5b506101cf600480360360208110156101a357600080fd5b81019080803573ffffffffffffffffffffffffffffffffffffffff1690602001909291905050506108f9565b6040518082815260200191505060405180910390f35b6000803373ffffffffffffffffffffffffffffffffffffffff1673ffffffffffffffffffffffffffffffffffffffff1681526020019081526020016000205481111561023057600080fd5b806000803373ffffffffffffffffffffffffffffffffffffffff1673ffffffffffffffffffffffffffffffffffffffff168152602001908152602001600020600082825403925050819055503373ffffffffffffffffffffffffffffffffffffffff166108fc829081150290604051600060405180830381858888f193505050501580156102c2573d6000803e3d6000fd5b503373ffffffffffffffffffffffffffffffffffffffff167f7084f5476618d8e60b11ef0d7d3f06914655adb8793e28ff7f018d4c76d505d5826040518082815260200191505060405180910390a250565b600160009054906101000a900473ffffffffffffffffffffffffffffffffffffffff1673ffffffffffffffffffffffffffffffffffffffff16632ddec39b600183016040518263ffffffff1660e01b815260040180828152602001915050600060405180830381600087803b15801561038c57600080fd5b505af11580156103a0573d6000803e3d6000fd5b505050506000806000600573ffffffffffffffffffffffffffffffffffffffff1673ffffffffffffffffffffffffffffffffffffffff16815260200190815260200160002054600160009054906101000a900473ffffffffffffffffffffffffffffffffffffffff1673ffffffffffffffffffffffffffffffffffffffff166390a3e3de846040518263ffffffff1660e01b81526004018082815260200191505060206040518083038186803b15801561045957600080fd5b505afa15801561046d573d6000803e3d6000fd5b505050506040513d602081101561048357600080fd5b81019080805190602001909291905050500190506000803373ffffffffffffffffffffffffffffffffffffffff1673ffffffffffffffffffffffffffffffffffffffff168152602001908152602001600020548111156104e257600080fd5b806000803373ffffffffffffffffffffffffffffffffffffffff1673ffffffffffffffffffffffffffffffffffffffff16815260200190815260200160002060008282540392505081905550806000808573ffffffffffffffffffffffffffffffffffffffff1673ffffffffffffffffffffffffffffffffffffffff168152602001908152602001600020600082825401925050819055508273ffffffffffffffffffffffffffffffffffffffff163373ffffffffffffffffffffffffffffffffffffffff167fddf252ad1be2c89b69c2b068fc378daa952ba7f163c4a11628f55a4df523b3ef836040518082815260200191505060405180910390a3505050565b6000803373ffffffffffffffffffffffffffffffffffffffff1673ffffffffffffffffffffffffffffffffffffffff1681526020019081526020016000205481111561062f57600080fd5b806000803373ffffffffffffffffffffffffffffffffffffffff1673ffffffffffffffffffffffffffffffffffffffff16815260200190815260200160002060008282540392505081905550806000808473ffffffffffffffffffffffffffffffffffffffff1673ffffffffffffffffffffffffffffffffffffffff168152602001908152602001600020600082825401925050819055508173ffffffffffffffffffffffffffffffffffffffff163373ffffffffffffffffffffffffffffffffffffffff167fddf252ad1be2c89b69c2b068fc378daa952ba7f163c4a11628f55a4df523b3ef836040518082815260200191505060405180910390a35050565b346000803373ffffffffffffffffffffffffffffffffffffffff1673ffffffffffffffffffffffffffffffffffffffff168152602001908152602001600020600082825401925050819055503373ffffffffffffffffffffffffffffffffffffffff167f2da466a7b24304f47e87fa2e1e5a81b9831ce54fec19055ce277ca2f39ba42c4346040518082815260200191505060405180910390a2565b6000806040516107db90610941565b604051809103906000f0801580156107f7573d6000803e3d6000fd5b5090508073ffffffffffffffffffffffffffffffffffffffff16632ddec39b60036040518263ffffffff1660e01b815260040180828152602001915050600060405180830381600087803b15801561084e57600080fd5b505af1158015610862573d6000803e3d6000fd5b505050508073ffffffffffffffffffffffffffffffffffffffff166390a3e3de60026040518263ffffffff1660e01b81526004018082815260200191505060206040518083038186803b1580156108b857600080fd5b505afa1580156108cc573d6000803e3d6000fd5b505050506040513d60208110156108e257600080fd5b810190808051906020019092919050505091505090565b60008060008373ffffffffffffffffffffffffffffffffffffffff1673ffffffffffffffffffffffffffffffffffffffff168152602001908152602001600020549050919050565b6102aa8061094f8339019056fe608060405234801561001057600080fd5b5061028a806100206000396000f3fe6080604052600436106100345760003560e01c80632ddec39b1461003957806390a3e3de14610067578063c1cbf7cf146100b6575b600080fd5b6100656004803603602081101561004f57600080fd5b8101908080359060200190929190505050610105565b005b34801561007357600080fd5b506100a06004803603602081101561008a57600080fd5b8101908080359060200190929190505050610217565b6040518082815260200191505060405180910390f35b3480156100c257600080fd5b506100ef600480360360208110156100d957600080fd5b8101908080359060200190929190505050610237565b6040518082815260200191505060405180910390f35b6000600190806001815401808255809150509060018203906000526020600020016000909192909190915055506000600190806001815401808255809150509060018203906000526020600020016000909192909190915055506000600290505b818110156101dc57600080600283038154811061017f57fe5b90600052602060002001546000600184038154811061019a57fe5b90600052602060002001540190806001815401808255809150509060018203906000526020600020016000909192909190915055508080600101915050610166565b507f1440c4dd67b4344ea1905ec0318995133b550f168b4ee959a0da6b503d7d2414816040518082815260200191505060405180910390a150565b600080828154811061022557fe5b90600052602060002001549050919050565b600061024560018301610105565b61024e82610217565b905091905056fea265627a7a72315820c44274077f5c1d62da5c4310ae026412f8002e5f842063aee8e16e086677099b64736f6c63430005100032a265627a7a7231582028c71a72ec0ac1b3fe5b3fb638bb4f6d6c8b71f4144497750e29e8eaf7640ec364736f6c63430005100032",
  "source": "pragma solidity >=0.4.21 <0.6.0;\n\nimport \"./Fibonacci.sol\";\n\ncontract PaymentChannel {\n\tevent Deposited(address indexed payee, uint256 weiAmount);\n\tevent Withdrawn(address indexed payee, uint256 weiAmount);\n\tevent Transfer(address indexed from, address indexed to, uint256 value);\n\n\tmapping (address => uint) balances;\n\tFibonacci fib;\n\n\tconstructor(address fibAddress) public {\n\t\tfib = Fibonacci(fibAddress);\n\t}\n\n\tfunction deposit() public payable {\n\t\tbalances[msg.sender] += msg.value;\n\n\t\temit Deposited(msg.sender, msg.value);\n\t}\n\n\tfunction getBalance(address addr) public view returns (uint) {\n\t\treturn balances[addr];\n\t}\n\n\tfunction withdraw(uint amount) public {\n\t\trequire(amount <= balances[msg.sender]);\n\t\tbalances[msg.sender] -= amount;\n\t\tmsg.sender.transfer(amount);\n\n\t\temit Withdrawn(msg.sender, amount);\n\t}\n\n\tfunction transfer(address dest, uint amount) public {\n\t\trequire(amount <= balances[msg.sender]);\n\t\tbalances[msg.sender] -= amount;\n\t\tbalances[dest] += amount;\n\n\t\temit Transfer(msg.sender, dest, amount);\n\t}\n\n\tfunction transferFib(address dest, uint count) public {\n\t    //Fibonacci newFib = new Fibonacci();\n\n\t\tfib.generateFib(count + 1);\n\t\tuint amount = fib.getFib(count) + balances[address(5)];\n\n\t\trequire(amount <= balances[msg.sender]);\n\t\tbalances[msg.sender] -= amount;\n\t\tbalances[dest] += amount;\n\n\t\temit Transfer(msg.sender, dest, amount);\n\t}\n\n\tfunction testCreate() public returns (uint) {\n\t\tFibonacci newFib = new Fibonacci();\n\t\tnewFib.generateFib(3);\n\t\treturn newFib.getFib(2);\n\t}\n}\n",
  "sourcePath": "/Users/ed/OffchainLabs/arb-os/contracts/test/contracts/PaymentChannel.sol",
  "compiler": {
    "name": "solc",
    "version": "0.5.16+commit.9c3226ce.Emscripten.clang"
  },
  "schemaVersion": "3.3.1",
  "updatedAt": "2021-03-05T19:07:12.647Z",
  "devdoc": {
    "methods": {}
  },
  "userdoc": {
    "methods": {}
  }
}