{
  "contractName": "Underfunded",
  "abi": [
    {
      "payable": true,
      "stateMutability": "payable",
      "type": "fallback"
    },
    {
      "constant": false,
      "inputs": [
        {
          "internalType": "uint256",
          "name": "value",
          "type": "uint256"
        }
      ],
      "name": "nestedCall",
      "outputs": [],
      "payable": false,
      "stateMutability": "nonpayable",
      "type": "function"
    }
  ],
  "bytecode": "0x608060405234801561001057600080fd5b5061016d806100206000396000f3fe60806040526004361061001e5760003560e01c80639b7c9da314610094575b6000610092576040517f08c379a000000000000000000000000000000000000000000000000000000000815260040180806020018281038252600b8152602001807f6e6f206465706f7369747300000000000000000000000000000000000000000081525060200191505060405180910390fd5b005b3480156100a057600080fd5b506100cd600480360360208110156100b757600080fd5b81019080803590602001909291905050506100cf565b005b3073ffffffffffffffffffffffffffffffffffffffff168160405180600001905060006040518083038185875af1925050503d806000811461012d576040519150601f19603f3d011682016040523d82523d6000602084013e610132565b606091505b5050505056fea265627a7a72315820be344486f21153f1b3ef1dfa95329a3bf99cebed92dda68b48de0a9182bf427a64736f6c63430005100032",
  "source": "pragma solidity ^0.5.16;\n\ncontract Underfunded {\n    function() external payable {\n        require(false, \"no deposits\");\n    }\n    function nestedCall(uint256 value) external {\n        address(this).call.value(value)(\"\");\n    }\n}\n\n",
  "sourcePath": "/Users/hkalodner/Github/mini-compiler/contracts/test/contracts/Underfunded.sol",
  "compiler": {
    "name": "solc",
    "version": "0.5.16+commit.9c3226ce.Emscripten.clang"
  },
  "schemaVersion": "3.3.2",
  "updatedAt": "2020-12-29T17:26:29.168Z",
  "devdoc": {
    "methods": {}
  },
  "userdoc": {
    "methods": {}
  }
}