{
  "contractName": "Add",
  "abi": [
    {
      "constant": true,
      "inputs": [
        {
          "name": "x",
          "type": "uint256"
        },
        {
          "name": "y",
          "type": "uint256"
        }
      ],
      "name": "add",
      "outputs": [
        {
          "name": "",
          "type": "uint256"
        }
      ],
      "payable": false,
      "stateMutability": "pure",
      "type": "function"
    },
    {
      "constant": true,
      "inputs": [
        {
          "name": "x",
          "type": "uint256"
        },
        {
          "name": "y",
          "type": "uint256"
        }
      ],
      "name": "mult",
      "outputs": [
        {
          "name": "",
          "type": "uint256"
        }
      ],
      "payable": false,
      "stateMutability": "pure",
      "type": "function"
    },
    {
      "constant": true,
      "inputs": [
        {
          "name": "x",
          "type": "uint256"
        },
        {
          "name": "y",
          "type": "uint256"
        }
      ],
      "name": "pythag",
      "outputs": [
        {
          "name": "",
          "type": "uint256"
        }
      ],
      "payable": false,
      "stateMutability": "pure",
      "type": "function"
    },
    {
      "constant": false,
      "inputs": [],
      "name": "getSeqNum",
      "outputs": [
        {
          "name": "",
          "type": "uint256"
        }
      ],
      "payable": false,
      "stateMutability": "nonpayable",
      "type": "function"
    },
    {
      "constant": false,
      "inputs": [],
      "name": "withdrawMyEth",
      "outputs": [],
      "payable": true,
      "stateMutability": "payable",
      "type": "function"
    }
  ],
  "bytecode": "0x608060405234801561001057600080fd5b50610366806100206000396000f3fe60806040526004361061004a5760003560e01c806349c1cc7b1461004f5780636d15c45714610059578063771602f7146100845780639aa727f6146100dd578063e4156bc514610136575b600080fd5b61005761018f565b005b34801561006557600080fd5b5061006e61022c565b6040518082815260200191505060405180910390f35b34801561009057600080fd5b506100c7600480360360408110156100a757600080fd5b8101908080359060200190929190803590602001909291905050506102f1565b6040518082815260200191505060405180910390f35b3480156100e957600080fd5b506101206004803603604081101561010057600080fd5b8101908080359060200190929190803590602001909291905050506102fe565b6040518082815260200191505060405180910390f35b34801561014257600080fd5b506101796004803603604081101561015957600080fd5b81019080803590602001909291908035906020019092919050505061030b565b6040518082815260200191505060405180910390f35b606473ffffffffffffffffffffffffffffffffffffffff166325e16063346104016040518363ffffffff1660e01b8152600401808273ffffffffffffffffffffffffffffffffffffffff1673ffffffffffffffffffffffffffffffffffffffff1681526020019150506000604051808303818588803b15801561021157600080fd5b505af1158015610225573d6000803e3d6000fd5b5050505050565b600080606473ffffffffffffffffffffffffffffffffffffffff166323ca0cd2336040518263ffffffff1660e01b8152600401808273ffffffffffffffffffffffffffffffffffffffff1673ffffffffffffffffffffffffffffffffffffffff16815260200191505060206040518083038186803b1580156102ad57600080fd5b505afa1580156102c1573d6000803e3d6000fd5b505050506040513d60208110156102d757600080fd5b810190808051906020019092919050505090508091505090565b6000818301905092915050565b6000818302905092915050565b600061032961031a84856102fe565b61032484856102fe565b6102f1565b90509291505056fea265627a7a72305820b61cf9597b59833e618284be1ab87a339c357f75b398464b0eefa9165368945f64736f6c634300050a0032",
  "source": "pragma solidity >=0.4.21 <0.7.0;\n\nimport \"./ArbSys.sol\";\n\n\ncontract Add {\n    function add(uint x, uint y) public pure returns (uint) {\n        return x+y;\n    }\n\n    function mult(uint x, uint y) public pure returns (uint) {\n        return x*y;\n    }\n\n    function pythag(uint x, uint y) public pure returns (uint) {\n        return add(mult(x,x), mult(y,y));\n    }\n\n    function getSeqNum() public returns (uint) {\n        uint256 txCount = ArbSys(address(100)).getTransactionCount(msg.sender);\n        return txCount;\n    }\n\n    function withdrawMyEth() public payable {\n\tArbSys(address(100)).withdrawEth.value(msg.value)(address(1025));\n    }\n}\n",
  "sourcePath": "/Users/ed/OffchainLabs/arb-os/contracts/add/contracts/Add.sol",
  "compiler": {
    "name": "solc",
    "version": "0.5.10+commit.5a6ea5b1.Emscripten.clang"
  },
  "schemaVersion": "3.2.4",
  "updatedAt": "2020-10-22T19:06:16.985Z",
  "devdoc": {
    "methods": {}
  },
  "userdoc": {
    "methods": {}
  }
}