{
  "contractName": "Add",
  "abi": [
    {
      "constant": true,
      "inputs": [
        {
          "name": "x",
          "type": "uint256"
        },
        {
          "name": "y",
          "type": "uint256"
        }
      ],
      "name": "add",
      "outputs": [
        {
          "name": "",
          "type": "uint256"
        }
      ],
      "payable": false,
      "stateMutability": "pure",
      "type": "function"
    },
    {
      "constant": true,
      "inputs": [
        {
          "name": "x",
          "type": "uint256"
        },
        {
          "name": "y",
          "type": "uint256"
        }
      ],
      "name": "mult",
      "outputs": [
        {
          "name": "",
          "type": "uint256"
        }
      ],
      "payable": false,
      "stateMutability": "pure",
      "type": "function"
    },
    {
      "constant": true,
      "inputs": [
        {
          "name": "x",
          "type": "uint256"
        },
        {
          "name": "y",
          "type": "uint256"
        }
      ],
      "name": "pythag",
      "outputs": [
        {
          "name": "",
          "type": "uint256"
        }
      ],
      "payable": false,
      "stateMutability": "pure",
      "type": "function"
    },
    {
      "constant": false,
      "inputs": [],
      "name": "getSeqNum",
      "outputs": [
        {
          "name": "",
          "type": "uint256"
        }
      ],
      "payable": false,
      "stateMutability": "nonpayable",
      "type": "function"
    }
  ],
  "bytecode": "0x608060405234801561001057600080fd5b5061028d806100206000396000f3fe608060405234801561001057600080fd5b506004361061004c5760003560e01c80636d15c45714610051578063771602f71461006f5780639aa727f6146100bb578063e4156bc514610107575b600080fd5b610059610153565b6040518082815260200191505060405180910390f35b6100a56004803603604081101561008557600080fd5b810190808035906020019092919080359060200190929190505050610218565b6040518082815260200191505060405180910390f35b6100f1600480360360408110156100d157600080fd5b810190808035906020019092919080359060200190929190505050610225565b6040518082815260200191505060405180910390f35b61013d6004803603604081101561011d57600080fd5b810190808035906020019092919080359060200190929190505050610232565b6040518082815260200191505060405180910390f35b600080606473ffffffffffffffffffffffffffffffffffffffff166323ca0cd2336040518263ffffffff1660e01b8152600401808273ffffffffffffffffffffffffffffffffffffffff1673ffffffffffffffffffffffffffffffffffffffff16815260200191505060206040518083038186803b1580156101d457600080fd5b505afa1580156101e8573d6000803e3d6000fd5b505050506040513d60208110156101fe57600080fd5b810190808051906020019092919050505090508091505090565b6000818301905092915050565b6000818302905092915050565b60006102506102418485610225565b61024b8485610225565b610218565b90509291505056fea265627a7a72305820c439f5062eb54bb6ab92a36c3593f17632308311fd469f8835112f5e66d7768e64736f6c634300050a0032",
  "source": "pragma solidity >=0.4.21 <0.7.0;\n\nimport \"./ArbSys.sol\";\n\n\ncontract Add {\n    function add(uint x, uint y) public pure returns (uint) {\n        return x+y;\n    }\n\n    function mult(uint x, uint y) public pure returns (uint) {\n        return x*y;\n    }\n\n    function pythag(uint x, uint y) public pure returns (uint) {\n        return add(mult(x,x), mult(y,y));\n    }\n\n    function getSeqNum() public returns (uint) {\n        uint256 txCount = ArbSys(address(100)).getTransactionCount(msg.sender);\n        return txCount;\n    }\n}\n",
  "sourcePath": "/Users/ed/OffchainLabs/mini-compiler/contracts/add/contracts/Add.sol",
  "compiler": {
    "name": "solc",
    "version": "0.5.10+commit.5a6ea5b1.Emscripten.clang"
  },
  "schemaVersion": "3.1.0",
  "updatedAt": "2020-07-07T20:11:33.133Z",
  "networkType": "ethereum",
  "devdoc": {
    "methods": {}
  },
  "userdoc": {
    "methods": {}
  }
}