{
  "contractName": "Add",
  "abi": [
    {
      "constant": true,
      "inputs": [
        {
          "name": "x",
          "type": "uint256"
        },
        {
          "name": "y",
          "type": "uint256"
        }
      ],
      "name": "add",
      "outputs": [
        {
          "name": "",
          "type": "uint256"
        }
      ],
      "payable": false,
      "stateMutability": "pure",
      "type": "function"
    },
    {
      "constant": true,
      "inputs": [
        {
          "name": "x",
          "type": "uint256"
        },
        {
          "name": "y",
          "type": "uint256"
        }
      ],
      "name": "mult",
      "outputs": [
        {
          "name": "",
          "type": "uint256"
        }
      ],
      "payable": false,
      "stateMutability": "pure",
      "type": "function"
    },
    {
      "constant": true,
      "inputs": [
        {
          "name": "x",
          "type": "uint256"
        },
        {
          "name": "y",
          "type": "uint256"
        }
      ],
      "name": "pythag",
      "outputs": [
        {
          "name": "",
          "type": "uint256"
        }
      ],
      "payable": false,
      "stateMutability": "pure",
      "type": "function"
    },
    {
      "constant": false,
      "inputs": [],
      "name": "getSeqNum",
      "outputs": [
        {
          "name": "",
          "type": "uint256"
        }
      ],
      "payable": false,
      "stateMutability": "nonpayable",
      "type": "function"
    },
    {
      "constant": false,
      "inputs": [],
      "name": "withdrawMyEth",
      "outputs": [],
      "payable": true,
      "stateMutability": "payable",
      "type": "function"
    }
  ],
  "bytecode": "0x608060405234801561001057600080fd5b5061036f806100206000396000f3fe60806040526004361061004a5760003560e01c806349c1cc7b1461004f5780636d15c45714610059578063771602f7146100845780639aa727f6146100dd578063e4156bc514610136575b600080fd5b61005761018f565b005b34801561006557600080fd5b5061006e610235565b6040518082815260200191505060405180910390f35b34801561009057600080fd5b506100c7600480360360408110156100a757600080fd5b8101908080359060200190929190803590602001909291905050506102fa565b6040518082815260200191505060405180910390f35b3480156100e957600080fd5b506101206004803603604081101561010057600080fd5b810190808035906020019092919080359060200190929190505050610307565b6040518082815260200191505060405180910390f35b34801561014257600080fd5b506101796004803603604081101561015957600080fd5b810190808035906020019092919080359060200190929190505050610314565b6040518082815260200191505060405180910390f35b606473ffffffffffffffffffffffffffffffffffffffff16631b9a91a46104016113886040518363ffffffff1660e01b8152600401808373ffffffffffffffffffffffffffffffffffffffff1673ffffffffffffffffffffffffffffffffffffffff16815260200182815260200192505050600060405180830381600087803b15801561021b57600080fd5b505af115801561022f573d6000803e3d6000fd5b50505050565b600080606473ffffffffffffffffffffffffffffffffffffffff166323ca0cd2336040518263ffffffff1660e01b8152600401808273ffffffffffffffffffffffffffffffffffffffff1673ffffffffffffffffffffffffffffffffffffffff16815260200191505060206040518083038186803b1580156102b657600080fd5b505afa1580156102ca573d6000803e3d6000fd5b505050506040513d60208110156102e057600080fd5b810190808051906020019092919050505090508091505090565b6000818301905092915050565b6000818302905092915050565b60006103326103238485610307565b61032d8485610307565b6102fa565b90509291505056fea265627a7a72305820fca0bc2a2d4c31193c616aa9d07366c1ae1a1424f4f44991137e2ebc791d6fa364736f6c634300050a0032",
  "source": "pragma solidity >=0.4.21 <0.7.0;\n\nimport \"./ArbSys.sol\";\n\n\ncontract Add {\n    function add(uint x, uint y) public pure returns (uint) {\n        return x+y;\n    }\n\n    function mult(uint x, uint y) public pure returns (uint) {\n        return x*y;\n    }\n\n    function pythag(uint x, uint y) public pure returns (uint) {\n        return add(mult(x,x), mult(y,y));\n    }\n\n    function getSeqNum() public returns (uint) {\n        uint256 txCount = ArbSys(address(100)).getTransactionCount(msg.sender);\n        return txCount;\n    }\n\n    function withdrawMyEth() public payable {\n\tArbSys(address(100)).withdrawEth(address(1025), 5000);\n    }\n}\n",
  "sourcePath": "/Users/ed/OffchainLabs/mini-compiler/contracts/add/contracts/Add.sol",
  "compiler": {
    "name": "solc",
    "version": "0.5.10+commit.5a6ea5b1.Emscripten.clang"
  },
  "schemaVersion": "3.1.0",
  "updatedAt": "2020-07-08T11:55:40.478Z",
  "networkType": "ethereum",
  "devdoc": {
    "methods": {}
  },
  "userdoc": {
    "methods": {}
  }
}