{
  "contractName": "Add",
  "abi": [
    {
      "constant": true,
      "inputs": [
        {
          "name": "x",
          "type": "uint256"
        },
        {
          "name": "y",
          "type": "uint256"
        }
      ],
      "name": "add",
      "outputs": [
        {
          "name": "",
          "type": "uint256"
        }
      ],
      "payable": false,
      "stateMutability": "pure",
      "type": "function"
    },
    {
      "constant": true,
      "inputs": [
        {
          "name": "x",
          "type": "uint256"
        },
        {
          "name": "y",
          "type": "uint256"
        }
      ],
      "name": "mult",
      "outputs": [
        {
          "name": "",
          "type": "uint256"
        }
      ],
      "payable": false,
      "stateMutability": "pure",
      "type": "function"
    },
    {
      "constant": true,
      "inputs": [
        {
          "name": "x",
          "type": "uint256"
        },
        {
          "name": "y",
          "type": "uint256"
        }
      ],
      "name": "pythag",
      "outputs": [
        {
          "name": "",
          "type": "uint256"
        }
      ],
      "payable": false,
      "stateMutability": "pure",
      "type": "function"
    }
  ],
  "bytecode": "0x608060405234801561001057600080fd5b5061019f806100206000396000f3fe608060405234801561001057600080fd5b50600436106100415760003560e01c8063771602f7146100465780639aa727f614610092578063e4156bc5146100de575b600080fd5b61007c6004803603604081101561005c57600080fd5b81019080803590602001909291908035906020019092919050505061012a565b6040518082815260200191505060405180910390f35b6100c8600480360360408110156100a857600080fd5b810190808035906020019092919080359060200190929190505050610137565b6040518082815260200191505060405180910390f35b610114600480360360408110156100f457600080fd5b810190808035906020019092919080359060200190929190505050610144565b6040518082815260200191505060405180910390f35b6000818301905092915050565b6000818302905092915050565b60006101626101538485610137565b61015d8485610137565b61012a565b90509291505056fea265627a7a72305820862f8ade86df10dd8ad94380fb9dc6c28508a961efaa9ec3fd820fa319d2fbbc64736f6c634300050a0032",
  "source": "pragma solidity >=0.4.21 <0.7.0;\n\ncontract Add {\n    function add(uint x, uint y) public pure returns (uint) {\n        return x+y;\n    }\n\n    function mult(uint x, uint y) public pure returns (uint) {\n        return x*y;\n    }\n\n    function pythag(uint x, uint y) public pure returns (uint) {\n        return add(mult(x,x), mult(y,y));\n    }\n}\n\n",
  "sourcePath": "/Users/ed/OffchainLabs/mini-compiler/contracts/add/contracts/Add.sol",
  "compiler": {
    "name": "solc",
    "version": "0.5.10+commit.5a6ea5b1.Emscripten.clang"
  },
  "schemaVersion": "3.1.0",
  "updatedAt": "2020-06-29T00:21:20.150Z",
  "networkType": "ethereum",
  "devdoc": {
    "methods": {}
  },
  "userdoc": {
    "methods": {}
  }
}