{
  "contractName": "Add",
  "abi": [
    {
      "constant": true,
      "inputs": [
        {
          "name": "x",
          "type": "uint256"
        },
        {
          "name": "y",
          "type": "uint256"
        }
      ],
      "name": "add",
      "outputs": [
        {
          "name": "",
          "type": "uint256"
        }
      ],
      "payable": false,
      "stateMutability": "pure",
      "type": "function"
    },
    {
      "constant": true,
      "inputs": [
        {
          "name": "x",
          "type": "uint256"
        },
        {
          "name": "y",
          "type": "uint256"
        }
      ],
      "name": "mult",
      "outputs": [
        {
          "name": "",
          "type": "uint256"
        }
      ],
      "payable": false,
      "stateMutability": "pure",
      "type": "function"
    },
    {
      "constant": true,
      "inputs": [
        {
          "name": "x",
          "type": "uint256"
        },
        {
          "name": "y",
          "type": "uint256"
        }
      ],
      "name": "pythag",
      "outputs": [
        {
          "name": "",
          "type": "uint256"
        }
      ],
      "payable": false,
      "stateMutability": "pure",
      "type": "function"
    },
    {
      "constant": false,
      "inputs": [],
      "name": "getSeqNum",
      "outputs": [
        {
          "name": "",
          "type": "uint256"
        }
      ],
      "payable": false,
      "stateMutability": "nonpayable",
      "type": "function"
    },
    {
      "constant": false,
      "inputs": [],
      "name": "withdrawMyEth",
      "outputs": [],
      "payable": true,
      "stateMutability": "payable",
      "type": "function"
    },
    {
      "constant": false,
      "inputs": [],
      "name": "currentBlockNum",
      "outputs": [
        {
          "name": "",
          "type": "uint256"
        }
      ],
      "payable": false,
      "stateMutability": "nonpayable",
      "type": "function"
    }
  ],
  "bytecode": "0x608060405234801561001057600080fd5b506103a4806100206000396000f3fe6080604052600436106100555760003560e01c806349c1cc7b1461005a5780636d15c45714610064578063771602f71461008f5780638505fdd2146100e85780639aa727f614610113578063e4156bc51461016c575b600080fd5b6100626101c5565b005b34801561007057600080fd5b50610079610262565b6040518082815260200191505060405180910390f35b34801561009b57600080fd5b506100d2600480360360408110156100b257600080fd5b810190808035906020019092919080359060200190929190505050610327565b6040518082815260200191505060405180910390f35b3480156100f457600080fd5b506100fd610334565b6040518082815260200191505060405180910390f35b34801561011f57600080fd5b506101566004803603604081101561013657600080fd5b81019080803590602001909291908035906020019092919050505061033c565b6040518082815260200191505060405180910390f35b34801561017857600080fd5b506101af6004803603604081101561018f57600080fd5b810190808035906020019092919080359060200190929190505050610349565b6040518082815260200191505060405180910390f35b606473ffffffffffffffffffffffffffffffffffffffff166325e16063346104016040518363ffffffff1660e01b8152600401808273ffffffffffffffffffffffffffffffffffffffff1673ffffffffffffffffffffffffffffffffffffffff1681526020019150506000604051808303818588803b15801561024757600080fd5b505af115801561025b573d6000803e3d6000fd5b5050505050565b600080606473ffffffffffffffffffffffffffffffffffffffff166323ca0cd2336040518263ffffffff1660e01b8152600401808273ffffffffffffffffffffffffffffffffffffffff1673ffffffffffffffffffffffffffffffffffffffff16815260200191505060206040518083038186803b1580156102e357600080fd5b505afa1580156102f7573d6000803e3d6000fd5b505050506040513d602081101561030d57600080fd5b810190808051906020019092919050505090508091505090565b6000818301905092915050565b600043905090565b6000818302905092915050565b6000610367610358848561033c565b610362848561033c565b610327565b90509291505056fea265627a7a723058207336ee84cff7f8b36fd045e2a1f3bdd43ce826a3b53330a41a9e414d4d416bf664736f6c634300050a0032",
  "source": "pragma solidity >=0.4.21 <0.7.0;\n\nimport \"./ArbSys.sol\";\n\n\ncontract Add {\n    function add(uint x, uint y) public pure returns (uint) {\n        return x+y;\n    }\n\n    function mult(uint x, uint y) public pure returns (uint) {\n        return x*y;\n    }\n\n    function pythag(uint x, uint y) public pure returns (uint) {\n        return add(mult(x,x), mult(y,y));\n    }\n\n    function getSeqNum() public returns (uint) {\n        uint256 txCount = ArbSys(address(100)).getTransactionCount(msg.sender);\n        return txCount;\n    }\n\n    function withdrawMyEth() public payable {\n\tArbSys(address(100)).withdrawEth.value(msg.value)(address(1025));\n    }\n\n    function currentBlockNum() public returns (uint) {\n        return block.number;\n    }\n}\n",
  "sourcePath": "/Users/ed/OffchainLabs/mini-compiler/contracts/add/contracts/Add.sol",
  "compiler": {
    "name": "solc",
    "version": "0.5.10+commit.5a6ea5b1.Emscripten.clang"
  },
  "schemaVersion": "3.1.0",
  "updatedAt": "2020-07-20T11:59:44.207Z",
  "devdoc": {
    "methods": {}
  },
  "userdoc": {
    "methods": {}
  }
}