{
  "contractName": "ArbInfo",
  "abi": [
    {
      "inputs": [
        {
          "internalType": "address",
          "name": "account",
          "type": "address"
        }
      ],
      "name": "getBalance",
      "outputs": [
        {
          "internalType": "uint256",
          "name": "",
          "type": "uint256"
        }
      ],
      "stateMutability": "view",
      "type": "function"
    },
    {
      "inputs": [
        {
          "internalType": "address",
          "name": "account",
          "type": "address"
        }
      ],
      "name": "getCode",
      "outputs": [
        {
          "internalType": "bytes",
          "name": "",
          "type": "bytes"
        }
      ],
      "stateMutability": "view",
      "type": "function"
    }
  ],
  "bytecode": "0x608060405234801561001057600080fd5b506101fa806100206000396000f3fe608060405234801561001057600080fd5b50600436106100365760003560e01c80637e105ce21461003b578063f8b2cb4f146100f8575b600080fd5b61007d6004803603602081101561005157600080fd5b81019080803573ffffffffffffffffffffffffffffffffffffffff169060200190929190505050610150565b6040518080602001828103825283818151815260200191508051906020019080838360005b838110156100bd5780820151818401526020810190506100a2565b50505050905090810190601f1680156100ea5780820380516001836020036101000a031916815260200191505b509250505060405180910390f35b61013a6004803603602081101561010e57600080fd5b81019080803573ffffffffffffffffffffffffffffffffffffffff1690602001909291905050506101a3565b6040518082815260200191505060405180910390f35b60606000823b90506060816040519080825280601f01601f19166020018201604052801561018d5781602001600182028038833980820191505090505b50905081600060208301863c8092505050919050565b60008173ffffffffffffffffffffffffffffffffffffffff1631905091905056fea264697066735822122051e6f5c3908da8b0d98920d5a9744ebfebb54580a56e0d8a7bccf4d89a21036164736f6c63430006020033",
  "source": "/*\n * Copyright 2020, Offchain Labs, Inc.\n *\n * Licensed under the Apache License, Version 2.0 (the \"License\");\n * you may not use this file except in compliance with the License.\n * You may obtain a copy of the License at\n *\n *    http://www.apache.org/licenses/LICENSE-2.0\n *\n * Unless required by applicable law or agreed to in writing, software\n * distributed under the License is distributed on an \"AS IS\" BASIS,\n * WITHOUT WARRANTIES OR CONDITIONS OF ANY KIND, either express or implied.\n * See the License for the specific language governing permissions and\n * limitations under the License.\n */\n\npragma solidity ^0.6.2;\n\ncontract ArbInfo {\n    function getBalance(address account) external view returns (uint256) {\n        return account.balance;\n    }\n\n    function getCode(address account) external view returns (bytes memory) {\n        uint256 size;\n        assembly {\n            size := extcodesize(account)\n        }\n        bytes memory code = new bytes(size);\n        assembly {\n            extcodecopy(account, add(code, 0x20), 0, size)\n        }\n        return code;\n    }\n}\n\n",
  "sourcePath": "/Users/ed/OffchainLabs/arb-os/contracts/arbos/contracts/ArbInfo.sol",
  "compiler": {
    "name": "solc",
    "version": "0.6.2+commit.bacdbe57.Emscripten.clang"
  },
  "schemaVersion": "3.3.1",
  "updatedAt": "2021-03-05T19:07:19.440Z",
  "devdoc": {
    "methods": {}
  },
  "userdoc": {
    "methods": {}
  }
}